:020000040800F2
:10000000F8FF01207D150B0819160B087931060839
:1000100019160B0819160B0819160B08000000001A
:1000200000000000000000000000000019160B088E
:1000300019160B080000000019160B08812106088C
:1000400019160B0819160B0819160B0819160B08A8
:1000500019160B0819160B08B9140608E11406083E
:100060001D15060859150608951506081D0C0000F3
:10007000310C0000450C0000590C00006D0C000014
:10008000810C0000950C000019160B0819160B08BE
:1000900019160B0819160B0819160B08D1150608A6
:1000A00019160B08E91A040819160B08D91A0408BE
:1000B000F91A0408091B0408191B0408494004081C
:1000C000AD3F04080D4104087140040819160B08DF
:1000D00019160B082D130000251400001D15000033
:1000E0000D16060819160B0800000000E51B040891
:1000F000BD1B0408F51B0408AD1B0408A90C000077
:1001000019160B08D5670408291B040819160B08D3
:10011000151600000D170000391B040809310A08E4
:10012000BD0C0000D10C0000E50C0000F90C000033
:100130000D0D000019160B0819160B0819160B08DF
:1001400000000000000000000000000000000000AF
:10015000210D0000350D0000490D000005180000BC
:10016000D14104083541040819160B0819160B086B
:1001700019160B0819160B0819160B0800000000B9
:1001800019160B0819160B08FD180000F5190000C8
:1001900019160B0819160B0819160B0819160B0857
:1001A00019160B0819160B0819160B0819160B0847
:1001B00019160B0819160B0819160B089542040896
:1001C000F941040819160B0819160B0819160B0823
:1001D00019160B084D370A0819160B0819160B08C3
:1001E00019160B0819160B0819160B0819160B0807
:1001F00019160B0819160B0819160B0819160B08F7
:1002000019160B0819160B0819160B0819160B08E6
:10021000051C0408151C0408251C040819160B08E5
:1002200019160B0819160B0819160B080000000008
:10023000D967040819160B080000000019160B08EE
:1002400019160B0819160B0819160B0819160B08A6
:1002500019160B0819160B0819160B0819160B0896
:1002600019160B0819160B0819160B0819160B0886
:1002700019160B0819160B0819160B0800000000B8
:1002800019160B080000000019160B0800000000EA
:080290000000000019160B0824
:0828000000001E080000200882
:020000040804EE
:1000000030B5FAB18E464FEA014C034600F1C00507
:10001000002419680C3353F8042C43F8084C41EAC7
:100020000C0142EA0E02AB4243F80C1C43F8042CCC
:10003000EFD1D0F8C03043EA0E03C0E93144C0F834
:10004000C03030BD4FEA014E8C46DEE7F0B5424C81
:1000500004EB401292F8203003B9F0BD4FF4B47CA9
:100060003E4B00264FEA401E0CFB004C9CF806510C
:100070008CF8066195711D785A7895420DD002EB87
:10008000420C560003EBCC0C9CF804C00CF1FF377B
:10009000012F55D9BCF1030F4DD004EB0E00818028
:1000A000EFF31183902282F312888279DBB2818888
:1000B00042EA4102002192B2817183F3118813094F
:1000C000247883EA122383EA0201CCB11301C943E5
:1000D000C269012480689BB201F00F01D2F8AC2004
:1000E00084400B4302F1C000590013F4004F8BB25F
:1000F00002D15168214351600C328242F4D1F0BDEB
:1001000013018468C26901F00F0104F110009BB271
:100110000124D2F8AC200B43844002F1C000590006
:1001200013F4004F8BB202D15168214351600C325D
:100130009042F4D1F0BD571C07F00307AF42ACD09A
:10014000324403EBC2030344597C0029A5D004EBDD
:100150000E0301229A71A0E704000020C01E0024B3
:10016000704700BF024B03EB401090F8210070472E
:10017000040000204368426D30B49A61EFF31182AD
:10018000502383F312884168D2B2856C0B68046DEA
:1001900023EA050323430B6082F3118843698168D6
:1001A0001A68096822F00102D0E908541A60826ACC
:1001B0001D605C615A60D0E90B429C60DA600023EC
:1001C000B0F86C2030BCCA6203777047012380F816
:1001D000103170474FF40063838170474FF4006320
:1001E00083817047437D13B1012B04D070474FF4D6
:1001F0008063838170474FF40063FAE7002307B5FB
:100200000F218DF807300DF1070201231FF0C4FA0A
:1002100028B19DF807306C2B14BF0020102003B0CC
:100220005DF804FB084A0346D0F8E4005268D3F8AE
:10023000F010121A00209142B8BFC3F8F02001223A
:1002400083F81C21704700BF001000E00269C368FA
:100250002DE9F04712EA03092AD005460E464FF071
:1002600000474FF00008B9FA89F327FA03F21B3B65
:10027000D24309EA02092A61042B16D8DFE803F009
:10028000352C231A0300B36A002B37D003F1FF3A51
:10029000C6F828801FFA8AFA746A34B123682046A7
:1002A000514698476468002CF8D1B9F1000FDAD1B3
:1002B000BDE8F0877068696B036889B29847B9F147
:1002C000000FD0D1F4E7B068A96B036889B29847F2
:1002D000B9F1000FC7D1EBE7F068E96B036889B2A9
:1002E0009847B9F1000FBED1E2E73069296C036885
:1002F00089B29847B9F1000FB5D1D9E7E96A1FFA79
:1003000081FAC9E78069B4305DF0EABC2DE9F04FAD
:10031000DFF824A385B09AF80090B9F1000F20D13E
:10032000DFF8188358F8C03C002B16DD0025B748CD
:1003300029464669D0F8AC30346803F1C00224F095
:100340000104346059600C339A42FBD1013558F8EE
:10035000C03C00F58670AB42EBDC012005B0BDE887
:10036000F08FAB4B5C6E21F05BFFDAF8443CDAF8BF
:10037000482C1433801AB0EB430FC0F27C81A54B9C
:100380000AF64C47A44E0AF1040EA3FB0423DFF83F
:10039000AC825B09CDF80880A6FB0326F60806EBC5
:1003A0008606A3EB4606F3B207EB8606039300230B
:1003B00000930AF62C730193029B009A53F8C43CF5
:1003C000934240F3FC80002A40F33A81DEF8184063
:1003D0000022924BD4F8F40099692033D1F8F4103C
:1003E000884208BF4A469E45F6D1002A00F028817F
:1003F00062690121DEF80430894D9940D3B222F0C0
:10040000FF02D4F8F840103BA5FB0353854D1B09B0
:10041000EB5C1A445368844A9BB2E41A0346A21860
:1004200000EB42029A420FD91D880D4200F0EB808A
:100430005D880D4200F01B819D880D4200F01981FE
:10044000DD8808330D42EDD11A880A409046002A13
:1004500040F0A880181AA4EB6000452828BF45206A
:1004600003EB4000834280F09D8094461D46144675
:1004700016E0B3F802B00BEA010B5A4540F0BF801A
:10048000B3F804B00BEA010B5A4540F0BA80DA88A1
:1004900008330A40944206D1984207D91A880A4084
:1004A000A242E6D00233984200F29080B8F1110FD8
:1004B00078D9C8F11503002B74DB09D00CFA03F3CB
:1004C000C8F114084FF0010C0CFA08F848EA030CC4
:1004D0005648CCF3C4330CF01F0250F8233050F8C8
:1004E000221041EA0331CCF34413CCF3842C50F8AE
:1004F000233041EA031150F82C3041EA032181EA0C
:10050000112383EA131303F00F030F2B1CD1B1F552
:10051000803F19D2DAF8343F09090133B1F5606F31
:10052000CAF8343F40F0AF80394A537803EB4303B5
:1005300002EBC303009A13445B7C0D2B00F09F80F9
:100540000B46019A93810BE0DAF8343F4FF6FF71C6
:100550000133CAF8343FDAF8303F0133CAF8303F8C
:1005600097F85830039883420CD0B2683B689B1AC6
:100570003B607B68326B9B1A7B600023B360336304
:1005800087F858003B6801333B60B3680133B360C0
:100590004FF6FF73994205D17B6801337B60336B63
:1005A00001333363009B5C37019A5C3601330EF1F3
:1005B000200E1432082B009301927FF4FDAE1C4BE9
:1005C0000122DDF8088083F83220ABE65D1B33F8AA
:1005D000024C6A100C40551C164A82FB05B2A2EB75
:1005E000E5720125012AB8BF01220CFA02FC9044F1
:1005F000013A05FA02F21D4642EA0C0C4EE70433BA
:1006000051E706334FE702331EE700BF40100020DA
:10061000C01E00241F85EB51CDCCCCCC080000209F
:10062000ABAAAAAA50CD0B08C7FFFF7F70330B08F7
:10063000041000205655555504000020FC100020E1
:10064000DEF81830D3F8F430BFF34F8F03F5907213
:100650000E49C1F85C3220339342F9D1BFF34F8F7A
:10066000BFF36F8FDEF81840D4F8F400C0E604330F
:10067000EAE60633E8E6002005B0BDE8F08F802307
:10068000019A93776CE78BB25BE700BF00ED00E067
:1006900010B5044672F00AF80146204689B2BDE85A
:1006A0001040D3E42DE9F843394B1A785B789A422D
:1006B00067D1384F4FF0000C374D384E384655F85B
:1006C000C43C634517DDBCF1000F44DD81693B4646
:1006D0000022D1F8AC4099692033D1F8AC108C429B
:1006E00008BF01228342F6D1AAB30CF1010C2030DD
:1006F000BCF1080FE3D155F8C06CDFF8AC80002ED8
:1007000012DD0024264898F80070A146013417B184
:10071000037F012B30D04269B44200F58670136824
:1007200043F001031360F1D121F07AFDD5F8744351
:10073000C8F8480C002C0CDD1A4B03EBC4041968F4
:10074000083333F8042CC868A34242EA0002CA60A6
:10075000F5D1BDE8F8838369D3F8AC30BFF34F8F90
:1007600003F1E002C6F8683220339342FAD1BFF3B6
:100770004F8FBFF36F8FB8E780F8FC90FFF7FAFC5C
:10078000C9E76CF019FA002893D1BDE8F88300BFDF
:10079000C01E002408000020FC10002000ED00E036
:1007A00040100020741400200400002070B50E4E8C
:1007B00056F8C43C002B15DD0C4C002504E056F81F
:1007C000C43C2034AB420DDD237F0135002BF6D035
:1007D000217D203454F8140C20F040FF56F8C43C1E
:1007E000AB42F1DC012070BDFC10002008000020AD
:1007F000F0B50446D0F85C016F4B83B0A16804F5F6
:1008000096720E68C1B220F0FF0001921039A3FB6E
:10081000013109096EF0BCFFD4F81C110023019AC4
:10082000012984F820311CD004291AD0102900F0A5
:10083000AE80402915D0B1F5807F00F0AB80B1F5D6
:10084000806F00F0A780B1F5805F00F0AB80B1F55C
:10085000803F4FF03C030CBF6FF008076FF4006758
:1008600001E06FF0080706F118053046E9583940F5
:10087000E950D4F81C116EF0C1FCD4F81C31012BE6
:1008800018D0042B16D0102B11D0402B12D0B3F55A
:10089000807F00F08380B3F5806F7FD0B3F5805FF9
:1008A00000F08480B3F5803F06F1540502D04FF488
:1008B000006200E008222B684026D4F85C01134354
:1008C000C2B220F0FF012B60103A3B4BC4F8E86045
:1008D000A3FB0232394BD4F80C51120913F802C0B1
:1008E000D4E93B365CF801703343354E3E40334328
:1008F000D4F8F4603343D4F8F8603343D4F8FC60A0
:100900003343D4F80861334343F040034CF80130DB
:100910000CEB0103D5B15E6926F0070ED4F8106127
:100920003543D4F8146145EA0E055D615CF8015069
:1009300025F0C0753543D4F818614CF801505CF8C7
:10094000015025F4C00535434CF80150D4F8E4506B
:10095000DD60D4F8E0509D601A4D5E683540D4F8F3
:100960000061D4F8044135435D60174B1344174AC6
:100970009B00914218BF20331A6822F0FF022243E5
:100980001A60036843F01003036003B0F0BD6FF416
:10099000006768E76FF00807042364E706F11C05A9
:1009A000082288E76FF4006704235CE706F11C0562
:1009B0004FF400627FE700BFABAAAAAA50CD0B0894
:1009C0001F80FCFF0000FFFF0082001000000240BB
:1009D0002DE9F04FDFF844B185B09BF8004024B911
:1009E0000124204605B0BDE8F08F464B5D6E21F036
:1009F00017FC454991F8AC2A002A00F0BB81434B13
:100A00000BF64C470BF582740026A3FB0523404DE3
:100A10005B09A5FB0325ED0805EB8505A3EB450563
:100A2000D1F8B43AC31A0193EBB207EB85050293F0
:100A30000BF62C730093019A002A04DBD4F82431BE
:100A4000934200F37B814FF4B47303FB06B393F836
:100A50002432002B00F0BF80D4F85C11A3682D482D
:100A60001A68CBB221F0FF01103BA0FB03032A4818
:100A70001B09C35C19444B68A1891FFA83FED36824
:100A8000CEF1160E23EA0103BEF1070FD36040F248
:100A9000A280DBF8343F00220121013390468A46D0
:100AA000CBF8343FD4F864319C4603935CF8049B44
:100AB00048461DE0DCF80090B8F1140FA9EB0003E4
:100AC00048462DDC13F1080948BF03F117094FEA26
:100AD000291308EB291803F1FF39013102FA03F356
:100AE0000CF1040C0AFA09F28E4542EA030217D30C
:100AF0008E45DFD8C8F11503DCF800004FF015086B
:100B0000E9E700BFC01E0024FC1000201F85EB5148
:100B1000CDCCCCCCABAAAAAA50CD0B0804000020A7
:100B2000B8F1150F40F001819749C2F38423C2F355
:100B3000441001EB830301EB8000D3F88030D0F840
:100B400080001B0243EA001302F01F00C2F3C4320C
:100B500001EB800001EB8202D0F88010D2F88020F7
:100B60000B4343EA023383EA132282EA121202F0B1
:100B70000F020F2A40F0D980C3F30F134FF6FF7214
:100B8000934200F0D280B3F5606F00F0DC80009AF1
:100B9000938197F85820029882420CD0A9683A684D
:100BA000521A3A607A68296B521A7A600022AA6057
:100BB0002A6387F858003A6801323A60AA6801321D
:100BC000AA604FF6FF72934205D17B6801337B60C8
:100BD0002B6B01332B63009B204601365C371433AB
:100BE0005C3504F5B4740093FFF702FE674B93F88D
:100BF000AC3AB3423FF71FAF654A012182F8321089
:100C000000226249C1F8B42A002B3FF4E9AE9BF8F8
:100C1000DC21DBF8200212F0020FDBF80C21116856
:100C20000A6A0CBF024342EA8002012B0A623FF4C7
:100C3000D7AE9BF84423DBF8880312F0020FDBF8F1
:100C4000742211680A6A0CBF024342EA8002022B36
:100C50000A623FF4C5AE9BF8AC24DBF8F00412F056
:100C6000020FDBF8DC2311680A6A0CBF024342EA78
:100C70008002032B0A623FF4B3AE9BF81426DBF824
:100C8000580612F0020FDBF8442511680A6A0CBFFF
:100C9000024342EA8002042B0A623FF4A1AE9BF8B1
:100CA0007C27DBF8C00712F0020FDBF8AC261168D6
:100CB0000A6A0CBF024342EA8002052B0A623FF433
:100CC0008FAE9BF8E428DBF8280912F0020FDBF85E
:100CD000142811680A6A0CBF024342EA8002062BFC
:100CE0000A623FF47DAE9BF84C2ADBF8900A12F0C2
:100CF000020FDBF87C2911680A6A0CBF024342EA42
:100D00008002082B0A627FF46BAE9BF8B43BDBF8E1
:100D1000F81B13F0020FDBF8E43A1A68136A14BFE9
:100D200043EA81030B4313625AE6DBF8303F013399
:100D3000CBF8303FB6B14FF6FF732AE700242046C8
:100D400005B0BDE8F08F13494A7802EB420201EB8F
:100D5000C2023244527C0D2A7FF419AF80220099DE
:100D60008A7716E7039958220B4872F01DF94FF65F
:100D7000FF730EE70BF580530121044883F832100E
:100D8000C0F8B42A2DE600BF70330B08FC10002019
:100D900004100020C01E0024DC0F00202DE9F341C8
:100DA000144698460DF10702012306460F461EF031
:100DB000F3FC88B1022021F0A9FA9DF807503946CA
:100DC000304625EA040444EA08028DF807201EF0A4
:100DD000EBFF089821F0DEFC02B0BDE8F08164234F
:100DE00073B500F11004009301230546122120463B
:100DF0001A460126FFF7D2FF02220D2120461EF0DF
:100E0000D3FF012021F0C6FC02220E2120461EF055
:100E1000CBFF012021F0BEFC7422102120461EF0E1
:100E2000C3FF012021F0B6FCAC22112120461EF0A8
:100E3000BBFF012021F0AEFC44237C22122120467E
:100E40000096FFF7ABFF0623132120461A460096B3
:100E5000FFF7A4FF00231722152120460096FFF775
:100E60009DFF0223204618211A460096FFF796FFA1
:100E700095F8210190B120F01FFE044608B1262309
:100E8000C3802946084B2046F02241F80C3F00233E
:100E9000009320F04BF9204620F0FCFA03481FF0A5
:100EA0004DF8A88202B070BDCD010408809698006C
:100EB00038B5802205466B211EF01EFF642021F00C
:100EC00069FCF52128461EF0E1FFAC2818D005D8B2
:100ED000122817D0982817D000240FE0AF28FBD194
:100EE000092410226A2128461EF006FF2846032204
:100EF00068211EF001FF642021F04CFC204638BD23
:100F00000724EEE70824ECE70B24EAE7014B43F85B
:100F10002010704750400058014B53F82000704794
:100F200050400058BFF34F8F0549064BCA6802F482
:100F3000E0621343CB60BFF34F8F00BFFDE700BFFC
:100F400000ED00E00400FA052DE9F043BDB0BFF369
:100F50005F8FA24A0020516A0346044621F4803183
:100F600051620146C2F89400C2F898300133C2F8C9
:100F70009C10112BC2F8A010F6D10523C2F89430B2
:100F8000536A43F480335362BFF34F8FBFF36F8FC5
:100F90009348944A9449121A72F006F89348944A76
:100FA0009449121A72F000F8934AD368042B00F0A7
:100FB000FC8005D8012B00F09B83022B00F091836D
:100FC000864A00238D4C0120D2F888108C4E41F4C3
:100FD00070018C4DC2F8881020602361216841F0B7
:100FE00080012160216801432160216841F4803142
:100FF0002160216841F480512160A361E361236293
:10100000A362E36223636363A363E36323646364B0
:10101000216821F4802121607B492366C1F8080101
:101020004FF000614FF6FF00784B9160D1680140AE
:101030000B43D3605BF0C8FDA36902460F20C3F3E6
:101040000323A169334493F8003103F01F0322FA0C
:1010500003F3AB625CF018FE6D4AD36813F0040F23
:10106000D36840F0A4806B4B0021694A0391D96A90
:1010700021F00101D962DB6A03F001030393936954
:1010800043F440439361936903F440430393039B08
:1010900093699804FCD54C2200210DA8594C71F09D
:1010A000F7FF5D4A42F203031268B3EB124F4FF0B1
:1010B0000003079304F1140318BF1C46E268002ADA
:1010C0004FD0544B5249D86A20F00100D862DB6AF5
:1010D00003F0010307938B6923F4404313438B61AF
:1010E0008B6903F440430793079B494A936999042A
:1010F000FCD5424B4FF4403148484FF00108D3F83B
:10110000E020002742F08002C3F8E020D3F8E0306E
:1011100003F080030693069B0323816108A90893CB
:101120000B93CDE909875CF069FC02230DA8CDF88B
:1011300034801E97CDE91633A3781893A3881993AA
:10114000A3791A93E3791B93237A1C9323691D9344
:101150004FF480330E935BF079FA03283BD098B1BB
:10116000FEE72B4A2B4B916941F440419161926912
:1011700002F440420792DA6A42F00102DA62DB6A64
:1011800003F001030793AFE7254B1A6812F00E0F27
:101190004AD11A6822F00F0242F002021A601B685C
:1011A00003F00F03022B3FD0FEE7D46008E723F0E3
:1011B00007031C4C43F00203D360D4F8081106E087
:1011C000D4F808315B1AB3F57A7F3FF64CAF536819
:1011D0009F04F5D547E772B6FFF7A4FE00ED00E0E7
:1011E00000000000284500001C610C0800000020E1
:1011F000040000208FD10C085040005800440258D1
:1012000070330B0800000024008000510003FA0531
:1012100000480258000400580010005C001C0258EE
:1012200000200052C01E00246D4A936903F0700331
:101230003F2B05D8936923F0700343F0400393617B
:10124000674AD36903F070033F2B05D8D36923F0B5
:10125000700343F04003D361614AD36903F4E06350
:10126000B3F5806F05D2D36923F4E06343F4806360
:10127000D3615B4A136A03F070033F2B05D8136AEE
:1012800023F0700343F040031362554B9A69120731
:1012900005D49A6922F00F0242F008029A61504A7E
:1012A000936923F47063936113689B017FF57CAFAE
:1012B000136941F288304B4C23F0070343F00303DA
:1012C0001361D4F8081105E0D4F808315B1A8342A1
:1012D00000F2BF81136903F03803182BF4D193692E
:1012E00003F00F03082B05D9936923F00F0343F094
:1012F000080393613C4A136803F00F03022B0BD9D8
:10130000136823F00F0343F002031360136803F024
:101310000F03022B7FF448AF314A936903F0700347
:10132000402B05D9936923F0700343F04003936188
:101330002B4AD36903F07003402B05D9D36923F0FE
:10134000700343F04003D361254AD36903F4E0639B
:10135000B3F5806F05D9D36923F4E06343F4806368
:10136000D3611F4A136A03F07003402B00F26981B6
:101370001B4F5BF029FC0346E86ABA69B969C2F3FE
:101380000322164496F8002102F01F02D340AB62FC
:101390005CF07AFC002840F05D81102314901690D8
:1013A0000DA80D935BF052F9002840F049813B688D
:1013B0000E4943F080033B60D7F8F43043F002035A
:1013C000C7F8F430D7F8F43003F002030293029B1D
:1013D0000A6A074B42F001020A62D4F808110CE0D5
:1013E00000440258C01E002400200052000400588F
:1013F00000E20400013B3FF4EEAED4F80821914234
:10140000F8D0D4F80821D4F808319B1A0A2BFAD95D
:101410004FF48023C14C0DA84FF000080D934FF4FA
:101420004013032602272E936DF0E4F8D4F8EC3035
:101430000DA843F00203C4F8EC30D4F8EC3003F00C
:1014400002030193019BD4F8943043F00203C4F8E3
:101450009430D4F8943023F00203C4F89430B04BA5
:101460001A6841F20303B3EB124FAE4BAE4A38BFDA
:101470001A46AE4B5A601A6822F47C5242F400526B
:101480001A601A6842F060021A600D96CDE92A8847
:101490006DF0B0F84FF4E0430DA8CDF8E0800D9367
:1014A000CDE924886DF0A6F818230DA8CDF8B480F6
:1014B0000D93CDF8C8806DF09DF8D4F8D430052197
:1014C0000DA843F48033C4F8D430D4F8D430CDF828
:1014D000548003F48033119610970093009B4FF4CF
:1014E00080330D9320934FF4FA73CDE90E13042348
:1014F000CDE9138812936DF07DF84FF400230DA809
:101500000D934FF4003335936DF074F8D4F8E03058
:1015100008A9874843F00103C4F8E030D4F8E0306C
:10152000099703F001030B96CDF828800593059BDE
:101530004FF48073CDF8308008935CF05FFA236934
:1015400008A97C4823F0FE7343F088732361D4F824
:10155000E03043F00403C4F8E030D4F8E0300997F9
:1015600003F004030B96CDF8288004934FF4007326
:10157000049A0893CDF830805CF040FA236923F098
:101580007E4343F0FC4323615BF01EFB6A4B6B4AD6
:101590004146A8621846D21A71F07AFD6848694A35
:1015A0006949121A71F000FDBFF35F8F674D46461F
:1015B000674C01276B6A23F480336B62C5F8948013
:1015C00023E0002A44D0D4F80080637A103414F861
:1015D000061C1B0643EA017343EA420314F8052C78
:1015E00043EA824314F8042C43EA424314F8032CE0
:1015F000C5F89860013643EA0243C5F89C80032E83
:1016000043F00103C5F8A03025D06368227A002B8F
:10161000D7D0D4F80080002AD7D128F01F09A3EB37
:101620000903202B38BF20231846994671F0B6FCD9
:10163000431E07FA03F2914518BF0346DAB2C4E726
:10164000FEE7136A23F0700343F0400313628FE652
:10165000FEE7A9E5A8E50523C5F894306B6A43F4D5
:1016600080336B62BFF34F8FBFF36F8FBFF34F8F2A
:10167000BFF36F8F0022C5F85022BFF34F8FBFF327
:101680006F8F6B6943F400336B61BFF34F8FBFF310
:101690006F8FC5F88420BFF34F8FD5F8805043F685
:1016A000E0762A49C5F34E34C5F3C905640104EA5E
:1016B00006002B4640EA8372013BC1F86022F9D252
:1016C000203C14F1200FF2D1BFF34F8F4B6943F44C
:1016D00080334B61BFF34F8FBFF36F8F3DB0BDE8D9
:1016E000F08304210320FFF711FC72B6FFF71AFC08
:1016F00002200A4B1749D060D3F8F4200243C3F804
:10170000F420D3F8F43003400D930D9AD1F800384B
:1017100083F30888D1F804389847FEE7004402585C
:101720000010005C7FBB22307FBB220000840040A1
:101730000000025800080258203A012420510124D8
:1017400020340124203A012493D10C0800ED00E05C
:10175000300000240090F01F30B5274C4FF6FF00FA
:10176000264A85B0E168264B0140264D0A43E260D7
:10177000D3F8D020C5F80C21D3F8DC2042F0005279
:10178000C3F8DC20D3F8DC2002F000520192019A69
:10179000D3F8DC2042F08042C3F8DC20D3F8DC2010
:1017A00002F080420292029AD3F8DC2042F000421A
:1017B000C3F8DC20D3F8DC3003F000430393039B31
:1017C0005BF002FAD4F8FC200F4942F080720F4B14
:1017D000A1FB00100E49C4F8FC204FF06042800CC1
:1017E000C2F8B01F0022C5F810015A601A6842F012
:1017F00001021A6005B030BD00ED00E00005FA05F9
:1018000000440258C01E002483DE1B43001000E089
:1018100055CEACC508B51D480023C0F88430BFF3D1
:101820004F8F436923F480334361BFF34F8FD0F868
:10183000803043F6E074C3F34E3CC3F3C90E4FEA65
:101840004C1C0CEA0401734641EA8372013BC0F868
:1018500074225A1CF8D1ACF1200C1CF1200FF0D1ED
:10186000BFF34F8FBFF36F8FBFF34F8FBFF36F8FF8
:101870004369002223F400334361C0F85022BFF3D0
:101880004F8FBFF36F8F72B6FFF74CFB00ED00E098
:10189000800AA0F58010522808D8054B184490F80B
:1018A00010310D2B02D8034AD056704700207047E4
:1018B00070330B0870CD0B08094A0023094901E079
:1018C00051F83320824204D00133112BF8D100208B
:1018D0007047054A02EBC303B3F86801704700BFC5
:1018E00000000140D4340B0870330B08890AA1F5BD
:1018F000801152292FD8204B194410B591F810E1CE
:10190000BEF10D0F26D8EFF31184502383F3128814
:1019100003680BB384464CF8243F043300F11402EF
:1019200052F8041B19B1196052F8043C04336245A3
:10193000F6D10021E2B2196082F31188436A7BB1CB
:101940000E4B4C2202FB0E3EDEF81421D36843F00E
:101950000103D36010BD704700F1240C6346DDE73E
:10196000064B4C2202FB0E3EDEF81421D36823F016
:101970000103D36010BD00BF70330B08C01E0024EC
:10198000F0B50468A30AA3F58013522B2DD8254D7A
:101990002B4493F810310D2B27D840794FEA900E45
:1019A00021B3214E4FF04C0C03EB83050CFB036C71
:1019B000800803EB4505DCF814714FF0020C754408
:1019C0000CFA00F0D7F80CC040EA0C0006EB850CCE
:1019D000CCF88C15CCF89C25F860144A2C202146B4
:1019E00000FB0320BDE8F04080E7F0BD0E4E4C2523
:1019F0007046022705FB03658740D5F814C103EB49
:101A00008305DCF80C0003EB450520EA070075446C
:101A1000CCF80C0006EB8500C0F88C15C0F89C25AE
:101A2000DBE700BF70330B08C01E002448240024ED
:101A300003689B0AA3F58013522B00D97047154AFF
:101A4000134493F810310D2BF8D84FF04C0C10B410
:101A5000114C79B9417902220CFB03405DF8044B2B
:101A600021FA02F3D0F814119A40CB6823EA02035A
:101A7000CB607047417902220CFB03405DF8044BB8
:101A800021FA02F3D0F8141102FA03F3CA681343DF
:101A9000CB60704770330B08C01E002403689B0A9C
:101AA000A3F58013522B12D8094A134493F810213E
:101AB0000D2A0CD84079022306494FF04C0CD8402F
:101AC0000CFB02128340D2F81421DB4313617047F0
:101AD00070330B08C01E002401490248FEF7B6BB54
:101AE000482400240000014001490248FEF7AEBB33
:101AF000482400240000014002494FF08040FEF7D6
:101B0000A5BB00BF7424002401490248FEF79EBB18
:101B1000A02400240004004001490248FEF796BBBF
:101B2000CC2400240008004001490248FEF78EBB87
:101B3000F8240024000C00402DE9F843194E3569C3
:101B4000F3681D4010D04FF00047DFF85C80B5FA15
:101B500085F227FA02F31F2A6FEA030305EA030559
:101B6000336103D0002DF2D1BDE8F883D8F88C366C
:101B7000A3B103F1FF3900231FFA89F9C8F88C36A5
:101B8000D8F88846002CEDD023682046494698476F
:101B90006468002CF8D1002DD9D1E5E7F16A1FFA6D
:101BA00081F9EDE700100040C01E00240149024801
:101BB000FEF74CBB7C2500240004014010B5064C08
:101BC000064804F2BC61FEF741FB04F214710448BC
:101BD000BDE81040FEF73ABBC01E002400040140DF
:101BE000001C004001490248FEF730BBA825002434
:101BF0000018004001490248FEF728BB00260024D7
:101C00000020004001490248FEF720BB2C2600249A
:101C10000040014001490248FEF718BB5826002445
:101C20000044014001490248FEF710BB842600240D
:101C3000004801402DE9F0474FF425728EB0002195
:101C40008A4871F025FA8A4B8A4F4FF08041D3F8C9
:101C5000F02007F12004B94642F0010207F5306593
:101C6000A246DFF81882C3F8F020A7F18806D3F85F
:101C7000F02002F001020092009AD3F8E82042F02E
:101C80000102C3F8E820D3F8E82002F00102019233
:101C9000019AD3F8E82042F00202C3F8E820D3F812
:101CA000E82002F002020292029AD3F8E82042F001
:101CB0000402C3F8E820D3F8E82002F004020392FB
:101CC000039AD3F8E82042F00802C3F8E820D3F8DA
:101CD000E82002F008020492049AD3F8E82042F0C7
:101CE0001002C3F8E820D3F8E82002F010020592B1
:101CF000059AD3F8E82042F02002C3F8E820D3F890
:101D0000E82002F020020692069AD3F8F02042F072
:101D10000202C3F8F020D3F8F02002F0020207928A
:101D2000079AD3F8E82042F04002C3F8E820D3F83D
:101D3000E82002F040020892089AD3F8E82042F026
:101D40008002C3F8E820D3F8E82002F0800209926C
:101D5000099AD3F8E82042F48072C3F8E820D3F857
:101D6000E82002F480720A920A9AD3F8F02042F432
:101D70008032C3F8F020D3F8F02002F480320B92C6
:101D80000B9AD3F8F02042F40032C3F8F020D3F8D5
:101D9000F02002F400320C920C9AD3F8F02042F4B6
:101DA0008022C3F8F020D3F8F03003F480230D93A1
:101DB0000D9B4246002301E056F833208A420CD0A6
:101DC0000133112BF8D10AF1200A00206AF094FFA8
:101DD00055450DD05AF8201CEBE7274A0AF1200A96
:101DE00002EBC303B3F868016AF086FF5545F1D1F1
:101DF00007F52E6709F120094F4512D099F80630F2
:101E0000002BF7D099F804001FF056FE022100289D
:101E1000F0D099F8082009F120091FF0E1FC4F45A6
:101E2000ECD14FF08041154F154E3A46002301E0AA
:101E300056F833208A420BD00133112BF8D12034CD
:101E400000206AF059FFAC420CD054F8201CECE79B
:101E5000094A203402EBC303B3F868016AF04CFF6F
:101E6000AC42F2D10EB0BDE8F08700BF4824002498
:101E7000004402585C350B0870330B080000014029
:101E8000D4340B08704700BF38B590F83DE0844665
:101E9000BEF1020F5FFA8EF018D014469CF83D2078
:101EA000012A02D102228CF83D200C290DD8DFE84E
:101EB00001F05D0C0C0C290C0C0C430C0C0C0E00EE
:101EC0004032214628465CF0B5FD002038BDDCF8E4
:101ED0003050334AEA63334AEA6495F83420012AE1
:101EE000F3D00121DCF8002085F8341095F8351086
:101EF0000129E5D000234FF40062184685F83430FC
:101F00006A6538BDDCF82850254AEA63254AEA6448
:101F100095F83420012AD8D00121DCF8002085F87A
:101F2000341095F835100129E4D13832214628467D
:101F30005CF080FD002038BDDCF82C50184AEA63C4
:101F4000184AEA6495F83420012ABED00121DCF851
:101F5000002085F8341095F835100129CAD13C329B
:101F6000214628465CF066FD002038BDDCF8245090
:101F70000B49DCF80020E9630A49E96495F834105C
:101F80000129A2D0012185F8341095F835100129D6
:101F9000B0D13432214628465CF04CFD002038BDDB
:101FA00031980908D99709081F4B984210B50ED0EF
:101FB00003F5806398420AD01C4A03F58043984297
:101FC00018BF904203D003F5806398421BD15AF0AA
:101FD0001DFE174B1749DC69DA69C4F3022CC2F302
:101FE000022201EB0C0393F8003103F01F03D840E9
:101FF0000F4B11491B69C3F3C03342EAC303CB5CE7
:1020000003FB00F010BD5AF001FE094B0949DC69E1
:10201000DA69C4F30214C2F302120B1993F8003107
:1020200003F01F03D840E3E70000014000400140F7
:102030000044025870330B085CCD0B08830AA3F5EB
:102040008013522B6DD82DE9F0417B4D84B02B4489
:1020500093F810610D2E61D8DFF804824C250446F8
:1020600005FB0685D5F81431834257D00139174650
:10207000C5F8140189B2C5F82011FFF795FF0023B8
:10208000B0FBF7F2C5F82431013AC5F81C31C5F8A8
:10209000283195F85131C5F8182103F0FF02002BC3
:1020A00040D04C23654903FB068503FB0611022340
:1020B000D5F8140185F8513104315AF06BFE012333
:1020C00085F85C3185F8523185F8533185F8543103
:1020D00085F8553185F8563185F8573185F85831EE
:1020E00085F8593185F85A3185F85B3185F85131D9
:1020F000534B9C4219D0B4F1804F16D0A3F57C43CA
:102100009C4212D003F580639C420ED003F580639D
:102110009C426CD003F578439C4268D004B0BDE883
:10212000F081704785F85021BBE74C234FF4805174
:10213000002203FB0683009193F8501103920129BA
:10214000CDE90122EAD00221D3F81401012483F859
:1021500051113C4985682940816083F8514183F8D9
:1021600050214C22002302FB06820293CDE900336A
:1021700092F85031012BD1D0D2F8143102213048DD
:1021800082F8511183425A6899682CD000F580601A
:10219000834228D022F070022B485A602B4A934287
:1021A00018BFB3F1804F0CBF01220022834208BF49
:1021B00042F0010200F58060834208BF42F0010254
:1021C00012B9234A934202D121F0800199604C2335
:1021D0000121002203FB068686F8511186F8502162
:1021E00004B0BDE8F0811B4810405860ECE70021C6
:1021F0004FF48053CDE900314C2303FB068393F861
:102200005021012ACDE9021188D0D3F8140102220D
:1022100083F851210B4A85682A4082600E4A83F870
:1022200050110121944283F851119AD00B4B9C42DA
:102230007FF474AF95E700BF70330B08D41F002400
:10224000000001408800CEFF00080040000400406C
:10225000001800408FFF0FFF00040140000C0040F9
:10226000C01E002470B504460068830AA3F58013DD
:10227000522B05D82C4D2B4493F810610D2E00D90C
:1022800070BDFFF7DBFE294B4C2202FB063696F8A9
:102290005131012B13D021680023254A254801E044
:1022A00050F8332091421CD00133112BF8D1012179
:1022B00000206AF003FE204B01221A6070BD022349
:1022C000D6F8142186F851311C4B91680B40062B2F
:1022D000E1D0B3F5803FDED0136843F00103136013
:1022E000D9E705EBC3030121134D93F86A4120465A
:1022F0006AF0E4FD04F01F03012162091B2C01FABE
:1023000003F345F8223006D119206AF0D7FD4FF0CB
:1023100000732B6070BD2E2CB2D12C206AF0CEFD44
:102320004FF480536B6070BD70330B08C01E0024E7
:1023300000000140D4340B0800E100E00700010078
:10234000D0F850112422F8B5C0F8D02104460A680C
:102350000023806804F5A87522F001020A600B6072
:102360004B608B6094F805C0C4F8D83184F8CC3148
:10237000C4F8D031C4F86831C4F8D431C4F870312D
:10238000C4F864314FEA8C23B44A03F48053C4F890
:1023900054019142C4F858314FEA0C3303F400530E
:1023A000C4F85C314FEA0C2303F48063C4F8603155
:1023B00000F0AE81237913F0010002D00422C4F8AA
:1023C000642113F0020305D0D4F8642142F008021E
:1023D000C4F864211CF0010F0DD048B1D4F8782165
:1023E00042F00202C4F878214FF48032C4F8802110
:1023F000002B40F081819A4B03F12C0053F8042B01
:10240000944200F03F819842F8D11CF0080F40F050
:102410004F81D4F8D031002B00F098812423284636
:10242000C4F8D0310B6823F001030B605AF096FE1C
:10243000012815D0D4F87831002B40F08D81D4F8E4
:10244000503128465A6822F490425A609A6822F025
:102450002A029A601A6842F001021A606DF01AF9B5
:102460002379DA076DD5D4F82C21002A00F05B819E
:102470000023D4F8341104F13C06E2634FF4806287
:10248000C4F8B8103046E264C4E91133C4E9143327
:10249000C4E91833C4E91A334FF48033E3654FF4C9
:1024A0008073A3656BF0CAFF30465CF0A3F8D4F8E4
:1024B000D431C4F8C861202B65673DD1E3686269F7
:1024C00099B2CAB3B1FA81F04009A9B394F8CCC16A
:1024D000BCF1010F30D02227C4F8D80194F870C0A5
:1024E000C4F8D4715F4FA4F8AC110121A7675E4F07
:1024F0008C45C4F8A821E7675C4FC4F88C0084F8C9
:10250000CC11C4F888700ED094F8717084F87010F3
:10251000012FD4F8501100F027814FF4006384F8A4
:102520007000C4F89030102100222023C4F8D81184
:1025300084F8CC21C4F8D031E26B23795268C4F816
:1025400044219B0740F18880D4F83021002A00F014
:10255000E3800023D4F8381104F1B406C4F8B420A1
:10256000C4F8C0304022C4F8D0303046C4E9323319
:10257000C4E93633C4E938334FF48033C4F8D43077
:102580004FF48063C4E92E12C4F8C4306BF056FFD8
:1025900030465CF02FF8002840F0B980D4F8B42021
:1025A000334B34483449824218BF9A42C4F8C4615C
:1025B000C4F8EC5000F160000CBF012300232F4C45
:1025C0008A4208BF43F001033031A24208BF43F002
:1025D000010360348A4208BF43F001033031824274
:1025E00008BF43F0010300F568708A4208BF43F05A
:1025F000010301F55C71A24208BF43F0010304F539
:1026000068748A4208BF43F001033031824208BF38
:1026100043F0010360308A4208BF43F001033031C8
:10262000A24208BF43F001038A4208BF43F00103FE
:102630003031824208BF43F001038A4208BF43F0B1
:1026400001033BB90E4BD31AB3FA83F35B09002B9A
:1026500000F0A38000235360F8BD00BF000C0058B9
:10266000BC1B002065940908999409089D940908E9
:102670001000024028000240400002405800024082
:10268000B8040240002C3FF4C0AE94F8F431002BA3
:102690003FF4BBAED4F878311CF0080F43F00803C8
:1026A000C4F878314FF40043C4F888313FF4B1AE38
:1026B000D4F8D031002B4CD024232846C4F8D03194
:1026C0000B6823F001030B605AF048FD01283FF42A
:1026D000C7AED4F87831002B42D1D4F85031284617
:1026E0005A6822F490425A609A6822F022029A6054
:1026F0009A6842F00802ACE6D4F8783143F001035E
:10270000C4F878314FF40033C4F87C3173E6FEE747
:102710000423C4F874314DE6D4F8DC21136843F087
:1027200080031360F8BDD4F8DC21116841F4807196
:102730001160916841F001019160116841F0200140
:102740001160116841F010011160FAE684F8CC3193
:1027500064E684F8CC31AFE7284659F08FFA6EE68C
:10276000284659F08BFAB8E79BB2243130465CF02A
:1027700061F900287FF4D7AED4F8503184F8CC0149
:102780001A6842F480721A609A6842F001029A60F4
:102790009A6842F040029A60CEE65360F8BD00BFEE
:1027A000F8B50446EFF31185502383F31288D0F86F
:1027B00030311B6803F001031BB1EDB285F31188C2
:1027C000F8BDD0F8D021D0F8D4110A4302F021028C
:1027D000212AF2D0D0E909218A424FD04BD8006992
:1027E0001A46431A9BB2A262002284F8E021D4F870
:1027F000D021202AE1D1A2695118DED0B3FA83F2A8
:102800005209002BD9D094F8CC010128D5D0212031
:10281000A4F8A6314FF0010CC4F8D821C4F8D001B7
:10282000D4F8C401C4F8A011A4F8A43184F8CCC130
:1028300070B31D4E90F834E0C6631C4EE645026549
:1028400006641B4EC6640CD090F83560D4F8507105
:10285000664580F834C015D04FF4006380F834200A
:102860004365102100222023C4F8D81184F8CC211C
:10287000C4F8D031A1E7531A9BB2B4E7012380F822
:10288000E0319AE707F128025CF0D4F80028E8D19B
:10289000D4F8503100224021196284F8CC219A6882
:1028A00042F080029A6088E73D9409086194090823
:1028B0009D9409082DE9F843404C04EB8004D4F8BA
:1028C000C04A002C3DD0D4F8E4511F463C4B06468C
:1028D000A1602046236090466B68C4F8DC31AB6B86
:1028E00063616B6BA361EB8FE360AB8F23611FF0C0
:1028F0004DFA6B68A88DC4F8503100285AD194F86D
:10290000EA011FF0D9F83A07034694F8E8911BD57D
:1029100038B317F0510F4FF00B0206F1010614BF48
:102920000A211A2117F0410FC671827114BF40238A
:10293000202394F8EB2119431EF052FFD4F82C31D8
:1029400023B32046BDE8F88318F0020F09D040B148
:102950000B2202218271721CC27194F8EB211EF0CD
:102960003FFF48461FF0A8F80028E7D018F0010FF5
:10297000E4D00C2201360221C671827194F8E9215B
:102980001EF02EFFD4F82C31002BDAD195F832103E
:1029900095F8300089096AF091FA95F830300122F3
:1029A000084903F01F005B098240204641F82320BC
:1029B000BDE8F8836AF0A0F9A1E700BFFC10002091
:1029C0003C400B0800E100E02DE9F041BC4C86B032
:1029D00004EB0017D7F81C38002B00F0D480054614
:1029E0000601B7F826086AF087F9B7F826380121FA
:1029F00003F01F025B09023B01FA02F2082B0FD819
:102A0000DFE813F01D0125012D0135013D0109000D
:102A100045014D015501AB4BD96F21EA0202DA673E
:102A2000A319013593F82008EDB21FF045F810B155
:102A30001223C5718371A31993F821081FF03CF884
:102A4000074610B11323C5718371A31993F82208A7
:102A50001FF032F810B11423C571837104EB06081E
:102A600038462E2198F824281CF054FD98F82208A6
:102A70001FF022F80546C8B10168934B934A0B44F6
:102A800098F825789B0A02EB4303B3F8FC0C6AF034
:102A900033F9AB88286801A9059702270193002321
:102AA000CDE90273032304935AF0A8FF344494F849
:102AB00020081FF001F894F823282E211CF02AFD8D
:102AC000D4F81C3882491A688B4222F001021A603D
:102AD0005CD0804A934200F0888002F58062934285
:102AE00072D1784AD2F8901041F40041C2F89010A7
:102AF000D2F8901021F40041C2F89010DA6842F048
:102B00000042DA609A6822F4F0729A601A68D60776
:102B100039D471499D688A6FD1F8804044EA020037
:102B20008A6E10436D4A2A4010434A6F9860DD68F0
:102B3000486EED0078D50243C86EDE68B4F5800FAC
:102B400042EA0002086F664D42EA0002C86F05EAD9
:102B5000060542EA0002086E00F4C02600F4006098
:102B600042EA060242EA0502DA601A6822F40062CA
:102B700042EA00021A6002D1D1F884201A641A6D68
:102B800022F001021A6506B0BDE8F0814D4AD2F884
:102B9000981041F48051C2F89810D2F8981021F49E
:102BA0008051C2F898104F4A9342A7D1454AD2F8B3
:102BB0009C1041F02001C2F89C10D2F89C1021F02A
:102BC0002001C2F89C1099E7474A93421BD13D4A25
:102BD000D2F8981041F40051C2F89810D2F8981029
:102BE00021F40051C2F8981088E7364AD2F89010C4
:102BF00041F48041C2F89010D2F8901021F4804145
:102C0000C2F89010CFE7394A9342CCD12D4AD2F87E
:102C1000981041F48011C2F89810D2F8981021F45D
:102C20008011C2F8981069E7B2F1806F83D1B0F5D6
:102C3000800F80D11D6845F480551D607BE7214BD6
:102C4000D3F8981021EA0202C3F89820E8E61D4B59
:102C5000D3F8901021EA0202C3F89020E0E6194B65
:102C6000D3F8941021EA0202C3F89420D8E6154B59
:102C7000D3F8801021EA0202C3F88020D0E6114B7D
:102C8000D3F8841021EA0202C3F88420C8E60D4B71
:102C9000D3F88C1021EA0202C3F88C20C0E6094B5D
:102CA000D3F8881021EA0202C3F88820B8E6054B61
:102CB000D3F89C1021EA0202C3F89C20B0E600BFC2
:102CC000C01E0024004402580000FEA770330B0809
:102CD000003001400038004000000024E0FFBF8FBA
:102CE000FFFF39D800140058003401400050014063
:102CF000114A037A0168D35C10B4CC58CA1824F086
:102D00000104CC501368DB07FCD4037D1F2B09D9C9
:102D1000203B20225DF8044B02FA03F343F0180332
:102D2000CB60704720225DF8044B02FA03F343F0B6
:102D300018038B60704700BF50CD0B08F8B50768CB
:102D40000646D7E90454A0612B7D1F2B49D9203BAF
:102D50002022286802FA03F343F01803C360237D9E
:102D60001F2B48D92022203B02FA03F3226843F0AC
:102D70001803D3606368002269680A601A601A68E1
:102D800042F010021A60BA69297A6CF0B1FCFA6953
:102D9000217A20686CF0ACFC33682E681A6A5B6894
:102DA00091685868184A024020680A4317495A60D7
:102DB0002A7A8D5C725942F001027251227A895C42
:102DC000425842F0010242509A6842F440429A60EE
:102DD0001A6842F001021A601A6842F400721A601E
:102DE000F8BD2022286802FA03F343F01803836039
:102DF000237D1F2BB6D8202202FA03F3226843F06A
:102E000018039360B6E700BF0000FFFF50CD0B082A
:102E1000F0B5856997B004462A691378012B0DD067
:102E2000022B02D1136A002B33D0049A0120BDF883
:102E30001430C4F80E20638217B0F0BD92F904007C
:102E4000431CF2D00328F0DC64233D4E03FB00F06A
:102E50003318D3F8142C002AE7D093F8552C202AE5
:102E600010D193F8543C012B0CD0297D062330441B
:102E700028220093490000F6144004AB68F0D8F90A
:102E80000028D2D0B6F88C3D01339BB2A6F88C3D19
:102E9000CBE7079305F110008DF824300F931293C0
:102EA0001493CDE90A33012308938DF838308DF857
:102EB0004C30A8238DF80F300DF10F03069304ABAF
:102EC0009FED1D7B0C9306238DED107B0D93EFF38F
:102ED0001186102383F312882B691B6AFBB106AF9E
:102EE000089B39461BB1CB691431002BFBD1136A07
:102EF000EBB19A683AB98B4209D01A682AB15B687B
:102F00009A68002AF7D01433F3E7C3E90007F6B252
:102F100086F311882A69136A002BFCD185E706AB7A
:102F2000F6B2136286F3118870F01EFAF2E71860A9
:102F3000FFDE00BFAFF300800000000000000000D3
:102F4000C01E0024026970B5137896B00446012BA8
:102F50000ED0022B02D1136A002B34D0049A012028
:102F6000BDF81430C4F8D020A4F8D43016B070BD29
:102F700092F90400431CF1D00328EFDC64233C4D9C
:102F800003FB00F02B18D3F8142C002AE6D093F89A
:102F9000552C202A10D193F8543C012B0CD0217DC4
:102FA0000623284422220093490000F6144004AB73
:102FB00068F03EF90028D1D0B5F88C3D01339BB2C2
:102FC000A5F88C3DCAE701210DF10F00A2258DF86F
:102FD00024308DF838108DF84C100F931293149301
:102FE000069004F110008DF80F509FED1F7BCDE986
:102FF0000731CDE90A3304A906238DED107BCDE915
:103000000C13EFF31185102383F3128823691B6AD5
:10301000FBB106AE089B31461BB1CB691431002BC6
:10302000FBD1136AEBB19A683AB98B4209D01A689E
:103030002AB15B689A68002AF7D01433F3E7C3E932
:103040000006EDB285F311882269136A002BFCD1CA
:1030500084E706ABEDB2136285F3118870F084F952
:10306000F2E71860FFDE00BF000000000000000073
:10307000C01E002438B52A4B0446D0F8D8105A6830
:10308000D0F8E030501A834200DC23B9D4F8E430A1
:103090000B44C4F8DC3094F8D030C4F8D820012BAD
:1030A00005D0D4F8D4300133C4F8D43038BD201D55
:1030B00004F1E8056168EFF3118C102383F31288A3
:1030C00063681B6A0BB3D4F8F0302A461BB1D3698E
:1030D0001432002BFBD10B6AFBB1996839B99A42C3
:1030E00009D0196829B15B6899680029F7D01433B1
:1030F000F3E7C3E900055FFA8CFC8CF31188D4F880
:10310000D4300133C4F8D43038BD5FFA8CFC0D6282
:103110008CF3118870F028F9C3E71860FFDE00BF58
:10312000001000E0F0B5866997B00446316996F862
:103130004C210B78012B08D0022B02D10B6A002BFB
:103140003FD00025284617B0F0BD91F90430032B7D
:10315000D4BF00250125B3F1FF3F08BF45F00105AD
:10316000002DEED164204B4F00FB03F307EB030C63
:10317000DCF8143C0CF61440002BE3D0FF2A317D20
:103180009CF8553C5CD0202B5CD19CF8543C012B26
:1031900058D006234900009304AB68F049F8002892
:1031A00050D1BDF810100125BDF81220BDF8143023
:1031B00049BA52BA28465BBAE1812282638217B0CB
:1031C000F0BD62F07F0207938DF8243006F1100005
:1031D0008DF80F200DF10F020F930692012212932A
:1031E00008928DF838208DF84C2004AA1493CDE96C
:1031F0000A330623CDE90C2300220023CDE9102356
:10320000EFF31185102383F3128833691B6A002BB7
:1032100035D006AF089B3A461BB1D3691432002B58
:10322000FBD10B6A002B32D0996839B9934212D086
:10323000196871B15B6899680029F7D01433F3E716
:10324000202B10D0B7F88C3D01339BB2A7F88C3DF2
:1032500078E7C3E90007EDB285F311883269136A94
:10326000002BFCD19DE79CF8543C012BEAD049008F
:10327000062304AA67F0B0FE002892D0E2E706AB6E
:10328000EDB20B6285F3118870F06EF8E6E7186016
:10329000FFDE00BFC01E0024016970B50B7896B038
:1032A000044690F84D21012B08D0022B02D10B6A65
:1032B000002B42D00025284616B070BD91F904308D
:1032C000032BD4BF00250125B3F1FF3F08BF45F014
:1032D0000105002DEED164204B4E00FB03F306EBFD
:1032E000030CDCF8143C0CF61440002BE3D0FF2A4E
:1032F000217D9CF8553C5ED0202B5ED19CF8543C3F
:10330000012B5AD006234900009304AB67F090FFCD
:10331000002852D1BDF810100125BDF81220BDF8CB
:10332000143049BA52BA28465BBAA4F8D010A4F8AF
:10333000D220A4F8D43016B070BD62F07F0207939B
:103340008DF8243010308DF80F200DF10F020F93FF
:10335000069201221293149308928DF838208DF86A
:103360004C2004AACDE90A330623CDE90C23002220
:103370000023CDE91023EFF31185102383F3128886
:1033800023691B6A002B35D006AE089B32461BB161
:10339000D3691432002BFBD10B6A002B32D0996811
:1033A00039B9934212D0196871B15B6899680029E4
:1033B000F7D01433F3E7202B10D0B6F88C3D01334F
:1033C0009BB2A6F88C3D76E7C3E90006EDB285F323
:1033D00011882269136A002BFCD19BE79CF8543CAE
:1033E000012BEAD04900062304AA67F0F5FD002866
:1033F00090D0E2E706ABEDB20B6285F311886FF077
:10340000B3FFE6E71860FFDEC01E002482692DE9E5
:10341000F04192F8DC308AB00546012B4DD0023BDA
:10342000012B55D892F84C31EC46D2F89C2063F031
:103430007F032F4C13708669D6F8A03006F1100771
:10344000D6F8108003F1010E0FCCACE80F00D6F8CF
:103450009C30CDE9003E0FCCACE80F0094E80300AF
:103460008CE80300EFF31180102383F31288336993
:103470001B6A002B30D0029B6A461BB1D369143201
:10348000002BFBD1D8F82030002B2ED0996839B909
:1034900093420AD0196829B15B6899680029F7D06E
:1034A0001433F3E71F60C3F804D0C0B280F311886F
:1034B000AA6911690B6A002BFCD1D2F8A0305A8896
:1034C00052BAEA819A8852BA2A82DB885BBA6B8246
:1034D00001200AB0BDE8F081C0B2C8F820D080F366
:1034E000118838466FF040FFE2E71F60FFDE00BF43
:1034F000B8400B082DE9F04190F8DC308AB0044662
:10350000D0F8A050012B59D016D8D0F89C304FF0ED
:10351000FF3205211A605A609A60DA60D0F8E03014
:10352000C0F8F010B3F57A7F7DD8032380F8DC3043
:1035300001200AB0BDE8F081023B012BF8D890F8D9
:103540004D31EC46D0F89C2000F1100763F07F036A
:10355000514E1370D0F8A030D0F8108003F1010E56
:103560000FCEACE80F00D4F89C30CDE9003E0FCE72
:10357000ACE80F0096E803008CE80300EFF311803D
:10358000102383F3128823691B6A002B74D0029BDB
:103590006A461BB1D3691432002BFBD1D8F8203016
:1035A000002B76D0996839B9934225D0196801B3B8
:1035B0005B6899680029F7D01433F3E790F84C2141
:1035C00090F84D319B1A5B100133DBB235F81320B4
:1035D00005EB430553BAA0F8D0306B885BBAA0F86E
:1035E000D230AB885BBAA0F8D43001200AB0BDE875
:1035F000F0811F60C3F804D0C0B280F31188226943
:10360000136A002BFCD16B8801205BBAA4F8D03080
:10361000AB885BBAA4F8D230EB885BBAA4F8D4309C
:103620000AB0BDE8F08103691A7B72B35B6963B3CA
:1036300090F898304BB390F84C310122D0F89C00B0
:1036400063F07F03C4F8A4401449037094F84D312B
:1036500094F84C0184F800211B1A84F8DC20D4F87B
:10366000A0200733C4F804110132D4F89C10C4E937
:103670003E23C4F8F4105BE7C0B2C8F820D080F352
:10368000118838466FF070FEB9E7022384F8DC3009
:103690004EE71F60FFDE00BFB8400B08250204089C
:1036A0000138074B074A00EBC00003EB8000D0F85D
:1036B000880090420CBFA020A12069F01DBB00BF74
:1036C000000000240000024001382DE9E84100EB31
:1036D000C000134D1E46134B05EB800590460F4668
:1036E000D5F8880098420CBFA020A12069F004FB07
:1036F000B5F99E004FEA9811C5F89870C5F8A0601A
:1037000069F0DCFBB5F99E30002B07DB03F01F00EE
:1037100001225B090449824041F82320BDE8E88189
:10372000000000240000024000E100E02DE9F04F1D
:10373000B64B91B00024DFF8F8820093B44BA3F5A8
:10374000576BB44E0025DFF8C892B30AA3F5801377
:10375000522B59D85B4493F810310D2B54D818F9DB
:103760000370AD4B93F8A23D012B40F01581012F62
:1037700040D14FF0000A514638461FF067FB1FF05A
:10378000EDFB90F800C0BCF1000F18BFBCF1540F66
:1037900014BF4FF0010C4FF0000C40F0F9800AF11B
:1037A000040A1FFA8AFABAF1100FE4D1002C00F0D3
:1037B000BC80964A00210EE05B4493F810310D2B3B
:1037C00010D818F90330BB420FD0013102F58672D0
:1037D000A14280F2A680906803689B0AA3F580133B
:1037E000522BE9D90023BB42EFD1437999F8050068
:1037F0009842EAD10135082D14D059F8206FB30A48
:10380000A3F58013522BA5D9834B93F8A23D012B2E
:10381000F0D001220027022BABD1002AA9D001351C
:10382000082DEAD1009B013403F58673042C009324
:1038300087D17A4B0122DFF8FC91A3F5326B9046D9
:10384000009308F1FF335BF8C42C9A4266DDD9F887
:103850000C60002E00F08D833168B78801F127419C
:10386000B7FA87F701F57E01C7F11F07890A5BF8F0
:10387000C05C002D40F3AB80644B002405E00134B4
:1038800003F58673AC4200F0A0801A688A42F6D134
:103890004FF486735D4AC9F8047003FB04245FFA91
:1038A00088F3C9F81840002E00F0FA805C4A0192B3
:1038B000F3710323B3717A000321019B01FA02F52E
:1038C000A16C18780123294303FA02F2A164216D47
:1038D0000A432265002864D0626DBB401A436265CA
:1038E00016B13268B188916199B20122D4F8AC0066
:1038F000FCF786FB204608F10108FCF73BFC01239E
:10390000009AB8F1090F89F81C3009F1200909F86B
:10391000033C537402F11803009392D111B0BDE837
:10392000F08FBCF1000F7FF465AFD9F80C000022D6
:103930003C4B04E001320C33102A00F0228359681A
:103940008842F7D152B2304699F805101CF092FE29
:10395000354A4068002351680133884215D0102B46
:1039600002F12402F7D14FF0FF3303EBC3032F4AD8
:1039700002EB830393F8A430002B7FF43BAF244B7E
:1039800003EB4515009B9D604CE7DBB2013BECE788
:10399000002C7FF40EAF2DE7B7F1080218BF01220B
:1039A00039E707F110029340626D134363651EB15E
:1039B000B38832681B04936101210022D4F8AC0063
:1039C000B94089B2FCF71CFB94E7032C6BDC4FF485
:1039D000867202FB05B252F8B43C002B00F0BF82A5
:1039E00042F8BC1C0131DC6882F84D10542182F889
:1039F0004C106A1C0B494BF8C02C074A92F8B72DA3
:103A0000019299F81020049200221AE04010002040
:103A1000E0400B0800040140C01E00241C1C0020D4
:103A200004000020C80200248800002400000024B4
:103A300070CD0B080800002001320C31102A00F074
:103A4000A08248688442F7D152B2597918681CF0B4
:103A500011FE4FF48673DFF830A303FB05B3D0E902
:103A6000014243E92A4200235246516801338C4205
:103A70001ED0102B02F12402F7D1B34BA84693F8C5
:103A80008020002A00F0E180B049B14AB14BCBF868
:103A9000081BCBF8042BCBF8103B11B0BDE8F08F1E
:103AA000AD4B019307E70323AC4A82F8B63DEBE741
:103AB000DBB2A54A013B03EBC30302EB83034FF4E4
:103AC000867202FB05F293F8A40002925A44059014
:103AD000B2F84C100028D7D1A3F8A410029BA0493B
:103AE0009B1001FB03F352F8B41CC3EBC30408683A
:103AF0009C4903EBC30301EB441401F5607101EB36
:103B00004313316842F8104C9363332342F8B81CD6
:103B100042F80C3C8C23D363FEF746FA029B924A90
:103B2000D418019B062B00F00082072B8F4B904985
:103B300008BF19468F4B904A1ABF4FF0710C1A46B6
:103B40004FF01C0C4FF48673B0FBF2F2B0FBF1F1B6
:103B5000013A03FB05B3013992B2039323F8081C21
:103B600023F8502C22660022A4F858206266E265F1
:103B7000029A02F158017C4A114453F8B42C764B56
:103B800010680193C3F844CC6BF0B4FC039B53F86A
:103B9000B42C10680392036843F0800303605379E8
:103BA0000C2B08D8DFE803F0780707077007070732
:103BB000670707075E004FF4867303FB05B353F8EE
:103BC000B01C4FF0600C02680023CDF820C04FF409
:103BD000807C0A9322F00102CDF838C04FF0010C2E
:103BE0000D930F930223CDF824C04FF00A0CCDE9BA
:103BF0000BC3026008AA6BF001FB4FF48672039BB3
:103C000002FB05B21968002352F8B02C012A00F01B
:103C10008381042A00F08081102A00F0A581402AC7
:103C200000F07A81B2F5807F3ED0B2F5806F3BD054
:103C3000B2F5805F00F0A181B2F5803F4FF03C0308
:103C40000CBF08224FF4006230E04FF4867909FB84
:103C500008B999F84D1099F84C2083F8811083F831
:103C6000802011E74FF486734FF4805103FB05B3B6
:103C700043F8B01CA5E74FF486734FF4807103FB43
:103C800005B343F8B01C9CE74FF48673102103FB87
:103C900005B343F8B01C94E74FF48673012103FB8E
:103CA00005B343F8B01C8CE70822042301F1180087
:103CB00050F803C042EA0C02C250039B1879002856
:103CC00040F038814FF48672002302FB05B252F8AF
:103CD000B40C52F8A81C0068026842F001020260AD
:103CE000DAF804200133914200F01B81102B0AF115
:103CF000240AF5D14FF0FF33134A03EBC30302EB61
:103D00008303D3F888001D4B98420CBFA020A1204C
:103D100068F0F2FF4FF4867303FB05B353F8B43C2D
:103D20005A790C2A00F2FA80154901EB4202B2F8E6
:103D300070CE18684FF48673124903FB05B323F85D
:103D4000ACCC002329E000BF00000024C5DE05083C
:103D5000C1DE0508CDDE050804000020C01E0024D9
:103D60006B4CA407A0AA012440100020105522008B
:103D700044950800D0DD060040771B00000002409B
:103D800070330B087414002088000024904200F067
:103D9000EE800133042B00F0F78051F83320002A25
:103DA000F4D1DBF874230132CBF874230BEBC3029C
:103DB000DB00C2F878031944059823469022B1F835
:103DC00004E04FF4867A4CEA0E0C0AFB05BA002593
:103DD000A1F804C06E49FFF777FC60694FF4804C8E
:103DE000036843F010030360036843F014030360A7
:103DF0004FF48063C4E91F55C4E92755C4E9295528
:103E00005AF8A42CC4F88430C4F894204FF44032FB
:103E1000604BC4F898204022A2675AF80C2CC4F8D2
:103E20009020C2B25AF8B81C20F0FF00103A1831A6
:103E30002167A3FB02214FF48052574BC4F888201E
:103E40000909029A70321A445AF8103CC4F88CC01E
:103E500063676BF04DFC5AF8A80C029A4FF4003ED1
:103E600001684FF4006C4C4BB832216241691A442E
:103E70004FF4806361624168A1628168E162C16858
:103E8000C4F8C8502163C4E93055C4E93955C4E9C0
:103E90003B555AF8A41C4FF48045C4F8CC30C4E913
:103EA000371EDAF83C303B49C4F8D830C3B220F0B2
:103EB000FF00103BA1FB03315AF8B83CC4F8D0C056
:103EC00010330909C4F8B830DAF83830C4F8D450DF
:103ED000C4F8BC306BF00CFC5AF8A82C5FFA88F3DD
:103EE000116861635169A1635168E163916821645C
:103EF000D1686164116841F010011160116841F0EE
:103F000014011160049AC9F8047089F81020C9F8E6
:103F10000C60C9F81840CBE40822C7E64FF0000C4B
:103F200007E7DBB20593013BE6E61C494FF0380C8E
:103F30001B4A07E607911DF0BFFD0799069048B19F
:103F4000039B02211A7A1DF04BFC069B5422DA8057
:103F5000039B19684B6C43F400434B64B2E60223A5
:103F6000104A82F8B63D8FE54FF400629EE6DB0012
:103F700021E74FF0FF37394679E44FF4006204231C
:103F800094E600235B68FFDE00239B88FFDE00BF12
:103F900001000000ABAAAAAA40100020882A110044
:103FA000A0BB0D00C01E002400207047244BD3F896
:103FB000142C9169106810B4CC0538D5040626D5A8
:103FC000D3F8580C4FF4807440F00100C3F8580C3B
:103FD0004805D46130D5D3F8580C4FF48064890576
:103FE00040F00800C3F8580CD46108D5D3F8581C29
:103FF0004FF4007041F00201C3F8581CD061D3F8AF
:10400000581C11F00B0F0DD15DF8044B70474C0597
:10401000F5D48C05F3D50006E8D4D3F8581C11F07C
:104020000B0FF1D007485DF8044B57F07FBE4C05ED
:10403000EFD50006CFD4E2E78905D7D4DFE700BF8C
:10404000C01E0024D42A0024084810B4D0F8143C20
:10405000D0F8484C99691A682CB1234600F61440F0
:104060005DF8044B18475DF8044B7047C01E0024F0
:10407000244BD3F8782C9169106810B4CC0538D54E
:10408000040626D5D3F8BC0C4FF4807440F0010030
:10409000C3F8BC0C4805D46130D5D3F8BC0C4FF440
:1040A0008064890540F00800C3F8BC0CD46108D5D1
:1040B000D3F8BC1C4FF4007041F00201C3F8BC1CE3
:1040C000D061D3F8BC1C11F00B0F0DD15DF8044B7F
:1040D00070474C05F5D48C05F3D50006E8D4D3F829
:1040E000BC1C11F00B0FF1D007485DF8044B57F0E2
:1040F0001DBE4C05EFD50006CFD4E2E78905D7D425
:10410000DFE700BFC01E0024382B0024084810B48D
:10411000D0F8783CD0F8AC4C99691A682CB1234699
:1041200000F678405DF8044B18475DF8044B704783
:10413000C01E0024244BD3F8DC2C9169106810B405
:10414000CC0538D5040626D5D3F8200D4FF480745D
:1041500040F00100C3F8200D4805D46130D5D3F8F4
:10416000200D4FF48064890540F00800C3F8200D4D
:10417000D46108D5D3F8201D4FF4007041F002013E
:10418000C3F8201DD061D3F8201D11F00B0F0DD105
:104190005DF8044B70474C05F5D48C05F3D500064B
:1041A000E8D4D3F8201D11F00B0FF1D007485DF8CB
:1041B000044B57F0BBBD4C05EFD50006CFD4E2E76A
:1041C0008905D7D4DFE700BFC01E00249C2B002444
:1041D000084810B4D0F8DC3CD0F8104D99691A6842
:1041E0002CB1234600F6DC405DF8044B18475DF81F
:1041F000044B7047C01E0024244BD3F8402D916916
:10420000106810B4CC0538D5040626D5D3F8840D33
:104210004FF4807440F00100C3F8840D4805D46168
:1042200030D5D3F8840D4FF48064890540F0080040
:10423000C3F8840DD46108D5D3F8841D4FF4007001
:1042400041F00201C3F8841DD061D3F8841D11F040
:104250000B0F0DD15DF8044B70474C05F5D48C0560
:10426000F3D50006E8D4D3F8841D11F00B0FF1D07C
:1042700007485DF8044B57F059BD4C05EFD50006D3
:10428000CFD4E2E78905D7D4DFE700BFC01E002402
:10429000002C0024084810B4D0F8403DD0F8744DEC
:1042A00099691A682CB1234600F554605DF8044BF7
:1042B00018475DF8044B7047C01E002403282DE901
:1042C000F04FD4BF0026012685B0B0F1FF3F08BFF4
:1042D00046F001068DF80F30002E40F08780874FA2
:1042E0006423044603FB0073D3F8140C00287ED02B
:1042F00093F8555C202D40F08E8093F8545C012D8E
:1043000000F089800125D7F8088183F8545C05E026
:10431000D7F80831A3EB0803192B6CD8856915F47D
:104320000045F5D14FF0640B754BCDF800804FEA96
:1043300041090BFB04FB49460BEB030ABB44212359
:104340005046CBF8485C8BF8553C40238BF8563CE4
:104350000DF10F03CBF8585CCBF8383C0123ABF8D8
:104360003E3C0A2367F08EF9002879D1BBF83E3C29
:104370009BB2FF2B40F29980DBF8141CFF236148AD
:10438000ABF83C3C4B68604A034043EA09031A43DC
:104390004A60642505FB047505E0B5F83E3C9BB218
:1043A000002B00F0948042460A21504658F0FCF859
:1043B00088BBD5F8383CD5F8142C13F8010BB5F8A8
:1043C0003C1C9062C5F8383C0139B5F83E3C89B2D6
:1043D000013BA5F83C1C9BB2A5F83E3CB5F83E3C21
:1043E0009BB2002BD9D00029D7D124E0002630463B
:1043F00005B0BDE8F08F64232021002203FB047484
:10440000D4F8583C84F8542C0B43C4F8583C84F836
:10441000551C84F8562CB7F88C3D304601339BB2BE
:10442000A7F88C3D05B0BDE8F08FD7F80831A3EBB5
:1044300008030A2B28D8916911F08001F5D0B5F84E
:104440003E3C9BB2FF2B0ED953682E490B402E49A0
:1044500043EA09031943FF23A5F83C3C51609CE75C
:104460008BF8545CD7E7B5F83E3C26489BB2D9B2EE
:10447000A5F83C3C5368034043EA090343EA01437F
:1044800043F00073536088E7642303FB0474D4F89B
:10449000583C84F8541C43F02003C4F8583C2023B3
:1044A00084F8553C84F8561CB5E7BBF83E3CDBF875
:1044B000141C9BB213484A68ABF83C3CDBB2024088
:1044C00049EA0343134343F000734B6061E74146FD
:1044D000504666F031FD00289DD1D5F8143C2021CE
:1044E0000A4C0126D9615A6822405A6085F8551C49
:1044F00085F8540C85F8560C79E700BFC01E0024DF
:10450000D42A0024009C00FC0000FF0100E800FE0B
:104510002DE9F84FD94F6423044603FB0073D3F809
:10452000FC6B002E00F0A881D3F8045C1DB1AB79C0
:10453000002B40F0A181642303FB0473D3F8089C93
:10454000B9F1000F04D099F80630002B40F09481A7
:10455000631CDBB215B11522EB71AA71B9F1000F22
:1045600004D0162289F8073089F80620308B4FF0E6
:10457000090868F0C1FB28461BF0F8FC48461BF010
:10458000F5FC112128461DF069F8112148461DF05F
:1045900065F84FF0330A02E00A201DF0B7FE284606
:1045A0001DF052F810B9BAF1010AF5D128461BF0F6
:1045B000D7FC05201DF0AAFE28461BF0D7FC0520DD
:1045C0001DF0A4FEB8F10108E3D128464FF0640BBA
:1045D0001BF0C6FC05201DF099FE48461BF0C0FCF0
:1045E0000BFB04FB05201DF091FE28461BF0BEFCD2
:1045F00007EB0B0A05201DF089FE48461BF0B6FCB0
:104600009AF80E3C9AF80C2C2846002B9C4D14BFAF
:104610003E211E211AF07EFF9AF80E3C5D449AF866
:104620000D2C002B4846DFF8789214BF3E211E2146
:104630001AF070FF4C22414628466EF029FDDAF848
:10464000FC3B904A5B689342CAF8143CDFF854A2E2
:1046500040F02A8158F0DAFADAF82030C3F3021376
:104660009FED897A9FED895AB0EE084A9944F7EE9A
:10467000003A99F800314FF0000903F01F03D840C9
:10468000642307EE900A03FB0473F8EE677AB3F82D
:1046900010BCC7EE275A07EE90BA9FED7D7AF8EE70
:1046A000E77AC7EE274ADFED7B7AB0EE007AE5EED7
:1046B000877AA5EE875A25EE844A37EE856A74EE2E
:1046C000E72ABBF5C87F40F2145309F1010ED7BFAA
:1046D0001946322364234FF49670C8BF782007EE42
:1046E00090EAD4BF4FF4167C4FF4827C0344B8EEBA
:1046F000E77AC8BF4FF4FA7107EE903A27EE257AB1
:1047000001EB0C03F8EEE76A86EE873A73EE636A14
:10471000FCEEE67A17EE902A07EE90CAB8EEE73A7A
:1047200007EE903AF8EEE77A23EE243AC3EE276AD2
:1047300036EEC53A72EEE66AC3EE077A77EEE37AB2
:10474000FCEEE77A17EE901AC6EE877A77EEE37AF8
:10475000FCEEE77A17EE903A03F1020C0CEB010A3B
:10476000F0EE466A07EE90AAF8EE677AE7EE276A5F
:10477000F4EEE64AF1EE10FA00F39B805FFA82FC59
:10478000BCF10F0F00F29780323807EE900AF8EE76
:10479000E77A77EEC47AC7EE876AFCEEE67A17EE20
:1047A00090CA5FFA8CF00F2800F2858088B2FF284B
:1047B00000F2818098B2FF287DD840EA0973100585
:1047C0004FEA0C4200F07F6002F47F020343134380
:1047D000314A02EA012143EA01086420012300FB77
:1047E000047400272846C4F8203CC4F8188CC4F888
:1047F0001C7CC4F8247CC4F8287CC4F8307CC4F841
:10480000347C6AF0F9FE94F8553C202BD9B21AD1C9
:1048100094F8543C012B16D0242384F8553CD4F84A
:10482000143C1A6822F001021A601A6822F48052BD
:104830001A601A681A601A6842F001021A6084F855
:10484000551C84F8547C0021F07E68F037FBF37E21
:104850000124124D5A0903F01F03002104FA03F347
:1048600045F82230B07E68F029FBB37E5A0903F088
:104870001F039C4045F82240BDE8F88FC01E00246D
:10488000D42A0024001C0058286B6E4E00001643EA
:10489000002474490000704200FFFF0000E100E0C6
:1048A00070330B080044025858F0B0F9DAF81C30A5
:1048B000D4E6013152E7BEF10F0F8ED0F14600E78A
:1048C0002DE9F04F2DED028B95B08B46174605462E
:1048D0009DF8801003930291002800F0B080604E94
:1048E0000023047906F6B85002E0152B00F0A780EB
:1048F00003EB43020133815CA142F6D132442868C4
:10490000697992F9BA2DD3B20F2B00F298801BF07F
:10491000B1FE002800F09380DFF8548198F89C33B2
:104920000193002B00F09880D5E9054307930123FC
:104930000193002C00F08A804A4ED6F88C309C42BD
:1049400000F0BE84D6F8B0309C4200F0BB84D6F8AC
:10495000D430A34200F0B884D6F8F830A34200F077
:10496000B584D6F81C319C4200F0B284D6F84031B0
:104970009C4200F05C84D6F864319C4200F0AA842A
:10498000D6F888319C4200F0A784D6F8AC31A34217
:1049900000F0A784D6F8D0319C4200F0A484D6F869
:1049A000F4319C4200F0A184D6F818329C4200F009
:1049B000A184D6F83C329C4200F0A184D6F8603243
:1049C0009C4200F09E84D6F884329C4200F09E8483
:1049D000D6F8A8329C4200F09B844FF0FF330021B0
:1049E0000593019B002B45D0059B03EBC302DB0025
:1049F00006EB8202089392F8A430392B00F03E8334
:104A00002F68BA0AA2F58012522A00F234821648A0
:104A1000024492F810210D2A00F22D82134810F85A
:104A200002C09BB90598089A0244392006EB82021D
:104A300082F8A5C082F8A40041B101932EE0DFF80E
:104A4000308098F89C33002B7FF46EAF002015B0B7
:104A5000BDEC028BBDE8F08FD0E90143079368E716
:104A6000C01E00240000002470330B0870CD0B081A
:104A7000FC100020059A02EBC203D20006EB830370
:104A8000089293F8A420002AE0D10137032283F88A
:104A9000A57083F8A4200029D8D02F684FF4B472F1
:104AA000DFF8F49398F8983302FB0BF109EB01025D
:104AB0000A91C2F8604209F582720A4408EE902A0F
:104AC000ABB3D8F8A023BA4200F00884012B2ED053
:104AD000D8F87C24BA4200F00A84022B27D0D8F8F8
:104AE0005825BA4200F00884032B20D0D8F8342689
:104AF000BA4200F00884042B19D0D8F81027BA4223
:104B000000F00884052B12D0D8F8EC27BA4200F048
:104B10000484062B0BD0D8F8C828BA4200F00984C8
:104B2000072B04D0D8F8A429BA4200F08A835A1C73
:104B3000DC210493D2B201FB0381134688F8982349
:104B4000C1F8A073013BDC22049806934FF4B473C0
:104B500003FB0B91C94B02FB003381F8DDB1C1F8B7
:104B600064322B790B914FEA131A03F00F020AF10A
:104B7000FF3ABAF1060F00F26A82C14B099303EBC8
:104B80004A03B3F8300D40FA02F3DB0740F15F82CD
:104B900001239340013B18406CF01CFBB84B029A78
:104BA000534402F0010193F840ADB64B0131824409
:104BB00099F8000003EBCA02002800F04B8102982C
:104BC00080F001000290C00740F1788253F83A006B
:104BD000B2F804C0C0F818C049014FF4B47C41F0E9
:104BE00002010CFB0B9CCCF8E011C9B2CCF80C51C3
:104BF000CCF8D8210B91297A0C91A349099B014447
:104C00000D924FEA912C03EB4C01B1F8FC0C68F0CB
:104C100073F89C4B0D9A53F83A000C9B13939388AE
:104C20000F930B9B590902231093002311910FA995
:104C3000129358F0E3FE069B049A934200F04A82D6
:104C4000039B063BDBB20B930A994FF4B4738F4876
:104C5000002201F5967103FB0B934118C3F84C2217
:104C600008EE101A6021C3F83012029911F0020008
:104C7000C3E98D22C3E98F22C3E99122099000F094
:104C800089814A0002F00202C3F844220122C3F8DB
:104C900038224FF4B4730A224FF4803C002103FB06
:104CA0000B93C3E9942C0222C3F83C12C3F85812A8
:104CB000C3F85C2268790C2800F26381704A98F886
:104CC0009C1302EB800CDCF898AEC3F820A20029FC
:104CD00000F098824FF4B47303FB0B93D3F8642273
:104CE000C2F8CC40C3F86042019B002B00F08B81DE
:104CF0004FF4B472002302FB0B92C2E97933C2E98C
:104D00007B33C2E97D33C2E97F33C2E98133C2E933
:104D10008333C2E98533C2F81C3298F89C33002BE8
:104D200000F05A8129685A4801F14C0C049901EBB2
:104D3000C10100EB4110D2F86412C1F8D400079908
:104D4000C2F808120321C2E979C0C2F81412039A0A
:104D500000214FF4806E082A4FF4B47202FB0B92CC
:104D6000C2E98611C2E97C114FF04001C2F8EC1192
:104D70004FF00401C2F810120CBF06211221C2F834
:104D800004124FF48051C2E97EE14FF48041C2F831
:104D900000124FF40031C2F80C12019A002A00F000
:104DA00006814FF4B4710B9801FB0B910228C1F8F6
:104DB000604200F2DC80039A082A314A02EB80024A
:104DC000D2F88C0E334AB2FBF0F202F12302C1F8A2
:104DD00028220CBF5F2113214FF4B47418EE900AFF
:104DE000029304FB0B94D4F864229180FBF700FD3E
:104DF000029B002B00F09380019B002B00F08F8022
:104E000018EE102A514638466AF0F8F9BAF1010F47
:104E10007CD0BAF1040F79D0BAF1100F00F0F9810B
:104E2000BAF1400F72D0BAF5807F37D0BAF5806FF3
:104E300034D0BAF5805F00F07382BAF5803F00F09D
:104E40007B827B6D07F1540243F400637B656FF452
:104E500080632BE049010B9841F00201C0F80C512E
:104E6000C0F8D821C0F8E011C9B253F83A000B914C
:104E7000297A0C91C1E64FF0000CD2E59C14002079
:104E800070330B083C2700240000FEA70801002017
:104E90002051012400D0121304000020FB6907F107
:104EA0001C0243F00803FB616FF0040311680B4020
:104EB00013603B6843F001033B60099B002B5BD010
:104EC0003B6A43EA8A033B62069B049A93420BD1F6
:104ED0007B6C43F400437B643B6843F080033B609E
:104EE0003B6843F001033B6099F80030002B40F031
:104EF000A78001234FF4B471184601FB0B9181F890
:104F0000133115B0BDEC028BBDE8F08FBB6907F122
:104F1000180243F00803BB616FF00403C6E7059A6B
:104F2000089BC948134494F8DD4106EB8306D6F884
:104F3000883083420CBFA020A12067F0DDFEC34B68
:104F40000221B6F99E00C6F89830C6F8A04067F076
:104F5000B5FFB6F99E30002BFFF652AF03F01F01EC
:104F600001225B098A40BA4941F8232048E78D2293
:104F7000C1F8282213212FE73B6A43EA0A033B6268
:104F8000A2E7C3F8201298F89C33002B00F0288188
:104F90008A469FE64A0002F00202C3F8402201223C
:104FA000C3F834224FF48072C3F8482271E60A9A9B
:104FB000E1B2A84B24F0FF00E03210391A44A64BAE
:104FC000A3FB013109096AF093FB226898F89C332E
:104FD00042F010022260E4E60799C2F81432C2F8E7
:104FE00008120BEB8B010BEB41009C4901EBC0015C
:104FF000C2F86812C2F8E8112968687934310144AE
:10500000C2F8E411A3E62368E1B224F0FF0023F024
:10501000010310392360904BA3FB013109096AF0A9
:10502000B7FB089B059A134406EB8303D3F888006B
:10503000854B98420CBFA020A12067F05DFE57E68B
:105040002B684FF6FF716A793433995051E7029B10
:1050500099F8000003F001010131002840F01E81A1
:105060004A014FF4B47342F0020203FB0B93C3F8FE
:10507000E021C3F8D801C3F80C51DCE52F6892F8A1
:10508000A590BA0AA2F58012522A00F2CB80744889
:1050900000EB020C09909CF810C1BCF10D0F40F21E
:1050A000CB804FF0000CE1453FF4F8AC0998104478
:1050B00090F810210D2A7FF6B1ACC7E4002A00F069
:1050C000F080B2F804C053F83A004FEA0C4CC0F834
:1050D00018C081E54FF0FF3200231192614AADF80C
:1050E0003C3097421093CDE9123300F0C480B7F101
:1050F000804F00F02C815C4B9F4200F0268103F52D
:1051000080639F4200F0258103F580639F4200F099
:10511000228103F580639F4200F0218103F58063C3
:105120009F4200F01A8103F570439F4200F01B81FB
:10513000A3F56C439F4200F0148103F580639F4206
:1051400000F01B8103F580639F4200F0148103F59A
:1051500090339F4200F08E8003F580639F4200F001
:10516000088103F580639F4200F00181002F00F069
:10517000FC80002067F0C0FD3B68384623F0010347
:105180003B60FCF711FF039B07EE900A063BF8EE2D
:10519000677ADAB2022A0B9273D8314BDFED336AA9
:1051A00003EB820303F68C6292ED007AB8EE477A45
:1051B00087EE870A30EE260A6DF078FA039B0138F5
:1051C000082BADF83C0014BF13235F231193002379
:1051D0000FA938461093CDE912336AF08BF933E505
:1051E0009A464FF0FF3219464FF4B47303FB0B930A
:1051F000A3F81011D3F86412B1F8D8301340A1F815
:10520000D83071E502EB4002B2F8701ECB431AB2FF
:10521000EAE7BB6907F1180243F40063BB616FF46E
:10522000806343E6B9F1000F7FF410AC36E4052348
:10523000591C0593FFF7D5BBDFF834E01EF90CC00D
:1052400031E7072204927DE400000240750400006B
:1052500000E100E008010020ABAAAAAA205A01241C
:1052600070330B0800000140000400400AD7233CC3
:1052700070CD0B080B23424A02EBC303B3F868015D
:1052800078E79FED407A9FED400AA7EE870A6DF020
:105290000DFA01381323ADF83C0097E783F00103C2
:1052A00002934A014FF4B47342F0020203FB0B93E2
:1052B000C3F8E0210022C3F80C51C3F8D821BAE4A6
:1052C0000023B5E70123B3E70223B1E70323AFE7E8
:1052D0000423ADE70623ABE70723A9E700220492E6
:1052E00030E40823A4E70923A2E70A23A0E7012268
:1052F000049227E40B239BE70222049222E40C236E
:1053000096E70D2394E7032204921BE40E238FE714
:105310000F238DE70422049214E40522049211E481
:10532000FB6907F11C0243F40063FB616FF48063C7
:10533000BCE50622049205E47B6D07F1540243F0BC
:1053400008037B656FF00403B0E5022393E70123B4
:1053500091E703238FE704238DE706238BE70523DB
:1053600089E7082387E7072385E70E2383E70D23D3
:1053700081E70C237FE70A237DE709237BE700BF52
:1053800070330B08FCF4B2340AD7233C19481A4B8B
:1053900001681A4A41F4807130B4016082B0D3F8D8
:1053A000F410FF24CA2041F48031C3F8F410D3F87C
:1053B000F41001F4803101915321019D5462506237
:1053C0005162D3F8D030DB010CD40D4B00210D4AD3
:1053D00043F8041B9342FBD1084B0B4A1A6502B0F9
:1053E00030BC7047126D084B9A42EED102B030BC0F
:1053F000704700BF0048025800440258004000585F
:10540000544000586C4000583166654238B5554CE0
:105410000022B4F8041104F1B8006BF0BBF994F861
:10542000F73DB4F8042113F0020FD4F8B83002F0BD
:105430001F05196A43D00420A84021EA000119621F
:10544000196A196241F21111186A084208D1186AE2
:1054500040F24441084203D1596C21F4004159649F
:10546000186A41F21111084208D1186A40F2444109
:10547000084203D1196821F00101196001238AB99A
:1054800084F8FC30D4F8F80D08B13023C3801AF04A
:1054900067FD94F8FC2DD4F8F80D4E21BDE8384096
:1054A0001AF038B8042A02D184F8FD30EAE7082A55
:1054B00002D184F8FE30E5E784F8FF30E2E701200E
:1054C000A84021EA00011962196A196226498B4233
:1054D0000FD001F580618B420BD001F570518B42EA
:1054E00007D001F580618B4203D001F580618B42CA
:1054F0000DD1186A41F21111084208D1186A40F220
:105500004441084203D1596C21F400415964186A9E
:1055100041F21111084208D1186A40F24441084290
:1055200003D1196821F001011960012312B984F82F
:10553000F630A7E7042A02D184F8F730A2E7082A58
:1055400002D184F8F8309DE70C2A02D184F8F930B2
:1055500098E7102A02D184F8FA3093E784F8FB30F8
:1055600090E700BFC01E002400000140474B93F8A5
:10557000042E013A52B2511C00F086804449500179
:1055800001EB421200B5C3F8082E821D11F802E0AB
:1055900001EB020C93F80C2E964561D09CF802E0CA
:1055A00096455BD000F10A0211F802E001EB020C13
:1055B00093F80D2E96454CD09CF802E0964546D0C7
:1055C00000F10E0211F802E001EB020C93F80E2E2E
:1055D000964537D09CF802E0964531D093F8022EDC
:1055E00062B300F1120211F802E001EB020C93F831
:1055F0000F2E964539D09CF802E0964508BF0CF175
:10560000020C32D000F1160211F802E001EB020C9C
:1056100093F8102E964532D09CF802E0964508BFCC
:105620000CF1020C2BD01A3093F8112E11F800C097
:10563000084494451FD0817891421BD05DF804FB4B
:105640000CF1020CBCF80020A3F8142EC6E70CF1F4
:10565000020CBCF80020A3F81E2EB1E70CF1020CDE
:10566000BCF80020A3F81C2E9CE7BCF80020A3F88F
:10567000162EC7E702300288A3F81A2EDEE7BCF820
:105680000020A3F8182ECEE7704700BFC01E0024EC
:105690003C420B080120704738B5134C41F20D1302
:1056A000124941F28832D4F8645ED4F8200E2D04F9
:1056B0008560C56829400B430D21C36059F07EFB0E
:1056C00038B1D4F8542E034600201343C4F8543E96
:1056D00038BDD4F8203E5869C0F34320A0F104003F
:1056E000B0FA80F0400938BDC01E0024C0E0FEFFC3
:1056F0002DE9F04FBB4D7C2299B0002105F5626089
:105700006DF0C6FCD5F8083E4FF4805295F8024E75
:105710001B68C5F8282EC5F8203E1CB14FF4804206
:10572000C5F82C2E01224FF40031C5F8342E95F81F
:10573000502EC5F8301E002A00F0A2800322AA4B8A
:1057400085F8502EDA6CD0034AD508A857F0AEFB86
:105750000A9AA649130AA1FB03131B095C00D5F89A
:10576000200EA242A249466801EA060143EA01036B
:105770004360036843F00303036046D2D5F8082171
:10578000D5F808319B1A022BFAD90023994ADFF881
:10579000889202938360C36897491A40D9F82830E9
:1057A000A1FB033141F2883342F48052490AC260BE
:1057B00003FB01F10B4602E0426B170633D4013BB9
:1057C000FAD24FF0004001232A2285F8503ED5F846
:1057D000543E1843C5F8540E104619B0BDE8F08F7A
:1057E000996A9C6ADE6A14F47C7FC4F30512586BD4
:1057F00040F09480D5F8200E14467D4B41680B4054
:105800004360036843F003030360D5F80811B2FB5B
:10581000F4F47A4AB2FBF4F20232D5F808315B1A9A
:105820009A42FAD8B1E7764B4C1E724A83634FF422
